:10000000B0370420F1500000414B0000DD500000EB
:10001000DD500000DD500000DD500000DD5000002C
:1000200000000000000000000000000089520000F5
:10003000DD50000000000000ED510000DD50000028
:1000400065550000655500006555000065550000C8
:1000500065550000655500006555000065550000B8
:1000600065550000655500006555000065550000A8
:100070006555000065550000655500006555000098
:100080006555000065550000655500006555000088
:100090006555000065550000655500006555000078
:1000A0006555000065550000655500006555000068
:1000B0006555000065550000655500006555000058
:1000C0006555000065550000655500006555000048
:1000D0006555000065550000655500006555000038
:1000E0006555000065550000655500006555000028
:1000F0006555000065550000655500006555000018
:100100006555000065550000655500006555000007
:1001100065550000655500006555000065550000F7
:1001200065550000655500006555000065550000E7
:1001300065550000655500006555000065550000D7
:1001400065550000655500006555000065550000C7
:0401500065550000F1
:1001580081F0004102E000BF83F0004330B54FEA70
:1001680041044FEA430594EA050F08BF90EA020FDD
:100178001FBF54EA000C55EA020C7FEA645C7FEA70
:10018800655C00F0E2804FEA5454D4EB5555B8BF93
:100198006D420CDD2C4480EA020281EA030382EA04
:1001A800000083EA010180EA020281EA0303362D96
:1001B80088BF30BD11F0004F4FEA01314FF4801C69
:1001C8004CEA113102D0404261EB410113F0004F7B
:1001D8004FEA03334CEA133302D0524263EB430332
:1001E80094EA050F00F0A780A4F10104D5F1200ED0
:1001F8000DDB02FA0EFC22FA05F2801841F100012B
:1002080003FA0EF2801843FA05F359410EE0A5F1FE
:1002180020050EF1200E012A03FA0EFC28BF4CF02F
:10022800020C43FA05F3C01851EBE37101F00045E5
:1002380007D54FF0000EDCF1000C7EEB00006EEBF2
:100248000101B1F5801F1BD3B1F5001F0CD349087C
:100258005FEA30004FEA3C0C04F101044FEA4452D3
:1002680012F5800F80F09A80BCF1004F08BF5FEA5A
:10027800500C50F1000041EB045141EA050130BD3A
:100288005FEA4C0C404141EB0101013C28BFB1F54C
:10029800801FE9D291F0000F04BF01460020B1FA97
:1002A80081F308BF2033A3F10B03B3F120020CDA6A
:1002B8000C3208DD02F1140CC2F10C0201FA0CF048
:1002C80021FA02F10CE002F11402D8BFC2F1200CAD
:1002D80001FA02F120FA0CFCDCBF41EA0C01904063
:1002E800E41AA2BF01EB0451294330BD6FEA0404AC
:1002F8001F3C1CDA0C340EDC04F11404C4F1200297
:1003080020FA04F001FA02F340EA030021FA04F3A8
:1003180045EA030130BDC4F10C04C4F1200220FAFF
:1003280002F001FA04F340EA0300294630BD21FA3D
:1003380004F0294630BD94F0000F83F4801306BF03
:1003480081F480110134013D4EE77FEA645C18BFF7
:100358007FEA655C29D094EA050F08BF90EA020F8E
:1003680005D054EA000C04BF1946104630BD91EA86
:10037800030F1EBF0021002030BD5FEA545C05D189
:100388004000494128BF41F0004130BD14F58004C8
:100398003CBF01F5801130BD01F0004545F0FE413C
:1003A80041F470014FF0000030BD7FEA645C1ABF71
:1003B800194610467FEA655C1CBF0B46024650EAA8
:1003C800013406BF52EA033591EA030F41F40021D4
:1003D80030BD00BF90F0000F04BF0021704730B55A
:1003E8004FF4806404F132044FF000054FF000012F
:1003F80050E700BF90F0000F04BF0021704730B5F0
:100408004FF4806404F1320410F0004548BF4042C4
:100418004FF000013EE700BF42004FEAE2014FEA19
:1004280031014FEA02701FBF12F07F4393F07F4FF4
:1004380081F06051704732F07F4208BF704793F0F7
:100448007F4F04BF41F40021704730B54FF460740A
:1004580001F0004521F000411CE700BF50EA01020D
:1004680008BF704730B54FF000050AE050EA0102B6
:1004780008BF704730B511F0004502D5404261EB26
:1004880041014FF4806404F132045FEA915C3FF467
:10049800D8AE4FF003025FEADC0C18BF03325FEA04
:1004A800DC0C18BF033202EBDC02C2F1200300FAB5
:1004B80003FC20FA02F001FA03FE40EA0E0021FADA
:1004C80002F11444BDE600BF70B54FF0FF0C4CF4C8
:1004D800E06C1CEA11541DBF1CEA135594EA0C0F7A
:1004E80095EA0C0F00F0DEF82C4481EA030621EAB5
:1004F8004C5123EA4C5350EA013518BF52EA0335F0
:1005080041F4801143F4801338D0A0FB02CE4FF0A1
:100518000005E1FB02E506F00042E0FB03E54FF0D1
:100528000006E1FB03569CF0000F18BF4EF0010EC9
:10053800A4F1FF04B6F5007F64F5407404D25FEAC5
:100548004E0E6D4146EB060642EAC62141EA555178
:100558004FEAC52040EA5E504FEACE2EB4F1FD0CBA
:1005680088BFBCF5E06F1ED8BEF1004F08BF5FEA38
:10057800500E50F1000041EB045170BD06F00046EA
:1005880046EA010140EA020081EA0301B4EB5C0497
:10059800C2BFD4EB0C0541EA045170BD41F480118F
:1005A8004FF0000E013C00F3AB8014F1360FDEBFB4
:1005B800002001F0004170BDC4F10004203C35DA90
:1005C8000C341BDC04F11404C4F1200500FA05F313
:1005D80020FA04F001FA05F240EA020001F00042B4
:1005E80021F0004110EBD37021FA04F642EB06012A
:1005F8005EEA430E08BF20EAD37070BDC4F10C0454
:10060800C4F1200500FA04F320FA05F001FA04F217
:1006180040EA020001F0004110EBD37041F1000103
:100628005EEA430E08BF20EAD37070BDC4F120050E
:1006380000FA05F24EEA020E20FA04F301FA05F276
:1006480043EA020321FA04F001F0004121FA04F21E
:1006580020EA020000EBD3705EEA430E08BF20EAEE
:10066800D37070BD94F0000F0FD101F00046400028
:1006780041EB010111F4801F08BF013CF7D041EAAA
:10068800060195F0000F18BF704703F000465200AE
:1006980043EB030313F4801F08BF013DF7D043EA7F
:1006A8000603704794EA0C0F0CEA135518BF95EA35
:1006B8000C0F0CD050EA410618BF52EA4306D1D1BC
:1006C80081EA030101F000414FF0000070BD50EADB
:1006D800410606BF1046194652EA430619D094EA65
:1006E8000C0F02D150EA013613D195EA0C0F05D14F
:1006F80052EA03361CBF104619460AD181EA0301A3
:1007080001F0004141F0FE4141F470014FF000005A
:1007180070BD41F0FE4141F4780170BD70B54FF0F5
:10072800FF0C4CF4E06C1CEA11541DBF1CEA135575
:1007380094EA0C0F95EA0C0F00F0A7F8A4EB050457
:1007480081EA030E52EA03354FEA013100F088804E
:100758004FEA03334FF0805545EA131343EA126317
:100768004FEA022245EA111545EA10654FEA0026CC
:100778000EF000419D4208BF964244F1FD0404F585
:10078800407402D25B084FEA3202B61A65EB0305E1
:100798005B084FEA32024FF480104FF4002CB6EB9E
:1007A800020E75EB030E22BFB61A754640EA0C001E
:1007B8005B084FEA3202B6EB020E75EB030E22BF5E
:1007C800B61A754640EA5C005B084FEA3202B6EB9F
:1007D800020E75EB030E22BFB61A754640EA9C005E
:1007E8005B084FEA3202B6EB020E75EB030E22BF2E
:1007F800B61A754640EADC0055EA060E18D04FEAEC
:10080800051545EA16754FEA06164FEAC30343EA8B
:1008180052734FEAC2025FEA1C1CC0D111F4801F58
:100828000BD141EA00014FF000004FF0004CB6E751
:1008380011F4801F04BF01430020B4F1FD0C88BFF0
:10084800BCF5E06F3FF6AFAEB5EB030C04BFB6EBFB
:10085800020C5FEA500C50F1000041EB045170BDEE
:100868000EF0004E4EEA113114EB5C04C2BFD4EB1B
:100878000C0541EA045170BD41F480114FF0000E9F
:10088800013C90E645EA060E8DE60CEA135594EA1B
:100898000C0F08BF95EA0C0F3FF43BAF94EA0C0F1E
:1008A8000AD150EA01347FF434AF95EA0C0F7FF493
:1008B80025AF104619462CE795EA0C0F06D152EAE7
:1008C80003353FF4FDAE1046194622E750EA4106CB
:1008D80018BF52EA43067FF4C5AE50EA41047FF4DC
:1008E8000DAF52EA43057FF4EBAE12E74FF0FF3C41
:1008F80006E000BF4FF0010C02E000BF4FF0010C12
:100908004DF804CD4FEA410C7FEA6C5C4FEA430C8A
:1009180018BF7FEA6C5C1BD001B050EA410C0CBFD9
:1009280052EA430C91EA030F02BF90EA020F00203B
:10093800704710F1000F91EA030F58BF994208BFA2
:1009480090422CBFD8176FEAE37040F0010070475F
:100958004FEA410C7FEA6C5C02D150EA013C07D1B6
:100968004FEA430C7FEA6C5CD6D152EA033CD3D001
:100978005DF8040B704700BF8446104662468C46FB
:100988001946634600E000BF01B5FFF7B7FF00282E
:1009980048BF10F1000F01BD4DF808EDFFF7F4FF57
:1009A8000CBF012000205DF808FB00BF4DF808EDE2
:1009B800FFF7EAFF34BF012000205DF808FB00BF05
:1009C8004DF808EDFFF7E0FF94BF012000205DF827
:1009D80008FB00BF4DF808EDFFF7CEFF94BF0120DC
:1009E80000205DF808FB00BF4DF808EDFFF7C4FFD5
:1009F80034BF012000205DF808FB00BF4FEA410228
:100A0800B2F1E04324BFB3F5001CDCF1FE5C0DD964
:100A180001F0004C4FEAC0024CEA5070B2F1004FAE
:100A280040EB830008BF20F00100704711F0804FB1
:100A380021D113F13872BCBF01F00040704741F476
:100A480080114FEA5252C2F11802C2F1200C10FA7A
:100A58000CF320FA02F018BF40F001004FEAC1235E
:100A68004FEAD32303FA0CFC40EA0C0023FA02F302
:100A78004FEA4303CCE77FEA625307D150EA0133D8
:100A88001EBF4FF0FE4040F44000704701F00040A8
:100A980040F0FE4040F40000704700BF7BB972B9D7
:100AA8000029BEBF00204FF0004106E008BF002823
:100AB8001CBF6FF000414FF0FF3000F075B8ADF18A
:100AC800080C6DE904CE002909DB002B1ADB00F0C5
:100AD800AEF8DDF804E0DDE9022304B070474042D7
:100AE80061EB4101002B1BDB00F0A1F8DDF804E00D
:100AF800DDE9022304B0404261EB4101524263EB5D
:100B080043037047524263EB430300F090F8DDF86B
:100B180004E0DDE9022304B0404261EB4101704783
:100B2800524263EB430300F082F8DDF804E0DDE9AC
:100B3800022304B0524263EB4303704753B94AB9E6
:100B4800002908BF00281CBF4FF0FF314FF0FF30CD
:100B580000F02AB8ADF1080C6DE904CE00F067F892
:100B6800DDF804E0DDE9022304B07047D0B50022C7
:100B78000B4B06460F46FFF7A7FC00F017F8044694
:100B8800FFF728FC0022074BFFF79EFC02460B46A6
:100B980030463946FFF7E0FA00F008F82146D0BDA4
:100BA8000000F03D0000F041704700BF4A0011D23C
:100BB80012F5001211D20DD56FF47873B3EB6252AF
:100BC8000ED44FEAC12343F0004343EA505323FABB
:100BD80002F070474FF00000704750EA013002D130
:100BE8004FF0FF3070474FF00000704710F8012BAE
:100BF80011F8013B012A28BF9A42F7D0D01A704752
:100C080038B50022002304460D46FFF7CFFE28B969
:100C180020462946BDE83840FFF7A8BF204605F121
:100C28000041FFF7A3FF404261EB410138BD2DE9C8
:100C3800F04786468C460846089E1546744619466F
:100C4800002B40F0C1808542B2FA82F245D94AB100
:100C5800C2F1200300FA02FC954094402EFA03F3F7
:100C680043EA0C0C4FEA154EA8B2230CBCFBFEF865
:100C78000EFB18CC08FB00F943EA0C43994528D928
:100C8800EB1808F1FF3704D2994502D9A8F10207F9
:100C98002B44A3EB0903A4B2B3FBFEFC0EFB1C33ED
:100CA8000CFB00F044EA0344A04214D92C190CF1BF
:100CB800FF3304D2A04202D9ACF102032C44241A17
:100CC80043EA07401EB1D440002334607360BDE896
:100CD800F0874746DDE76346F1E792BB431B0121F6
:100CE8004FEA154EAFB2200CB3FBFEFC0EFB1C33D3
:100CF8000CFB07F840EA0343984561D9EB180CF15F
:100D0800FF3004D2984502D9ACF102002B44A3EB82
:100D18000803A4B2B3FBFEFC0EFB1C330CFB07F765
:100D280044EA0344A7424DD92C190CF1FF3304D2ED
:100D3800A74202D9ACF102032C44E41B43EA004069
:100D4800C0E7C2F120039540944020FA03F12EFA3F
:100D580003F34FEA154E9040AFB20343B1FBFEFCDC
:100D68000EFB1C10190C0CFB07F841EA00418845E2
:100D780022D969180CF1FF3004D2884502D9ACF1A8
:100D880002002944A1EB08019BB2B1FBFEFC0EFB5B
:100D98001C110CFB07F743EA01439F420ED9EB18DD
:100DA8000CF1FF3104D29F4202D9ACF102012B446D
:100DB800DB1B41EA004193E76046E3E76146F7E75A
:100DC8006046A4E76346B8E7834206D916B900210E
:100DD80008467CE7C6E900E0F9E7B3FA83F78FB97C
:100DE800834201D3724508D8BEEB020460EB0303CB
:100DF80001209C461EB9002169E73846FAE7C6E992
:100E0800004CF8E7C7F1200CBB400EFA07F522FAB0
:100E18000CF42EFA0CF1BA401C4320FA0CF3B8403B
:100E28004FEA144901431FFA84FEB3FBF9F809FBA2
:100E380018300B0C08FB0EFA43EA00439A4540D9D8
:100E4800E31808F1FF3004D29A4502D9A8F102004C
:100E58002344A3EB0A0389B2B3FBF9F809FB18335F
:100E680008FB0EFE41EA03418E452CD9611808F1B2
:100E7800FF3304D28E4502D9A8F10203214443EA84
:100E88000040A1EB0E01A0FB02984145CE46434627
:100E980002D306D14D4504D20138B9EB020E68EBF6
:100EA8000403002EA7D0B5EB0E0261EB030101FA93
:100EB8000CFC22FA07F3F9404CEA0303C6E90031B7
:100EC80099E74046C5E74346D9E70000000000001F
:100ED8002DE9F04F2DED028B594D9FED578BDFF823
:100EE80084B185B007E0574803F07AF84FF4005012
:100EF80000211EF0CDFB00244FF0FF324FF0FF33EE
:100F080051481DF0EBFA85ED008BAC604E4800F0BF
:100F1800EBFB4E4B18688368214622461B699847AD
:100F2800011EE0DB0024494BCDE90244186803AAFE
:100F3800836802A99B68984700284CDBDDF8088085
:100F4800B8F1000FEED0039F032F04D84146404864
:100F580000F0FAFAE6E74FF0FF334FF0FF323A4875
:100F68001DF0BCFAD5E9003E27F0030041464FF4D6
:100F7800FA49A246AF68404401941BE00137B1F931
:100F880000C0B1F90220BCF1000F06D00CEB02043E
:100F980004EBD474EAB144F34F025C1CABFB048C41
:100FA8002C4E043126F8132088424FEADC2309FB33
:100FB800134323D0B7F5FA4FE0D1012201927244CE
:100FC800ABFB024E4FEADE2E07FB1E2E0AF1010A8A
:100FD800D5E76246E1E701461F4803F001F81B4BDD
:100FE80018688368214603221B699847011EBFF6CB
:100FF8007DAF4B1D3FF47AAF184875E7019C2B6015
:10100800AF600CB1C5F804E0BAF1000F05D0EB6889
:101018000133EB602B6953442B610B4800F064FBF0
:10102800B7F57A5F04D20A48029900F08DFA79E799
:101038000B4800F03DFCF6E700000000000000004F
:1010480020580220883502001C09002094D3032070
:10105800D008002080D90220A4350200BC35020047
:101068006C090020D34D62102DE9F84300229FED52
:101078002C7B02204FF480364FF400182A4C2B4B5F
:101088002B4FC4F80833C4F848332A4BC4F8082552
:10109800012183ED027BC4F80463C4F8040315201E
:1010A800C7F8808104F02EF9152004F0FBF801231D
:1010B800214DA36023602B60D5E8EF9F29F0010341
:1010C800C5E8E23F002AF7D1C4F80863BFF35F8F91
:1010D800BFF36F8F0021194806F02AFA19F0010FA3
:1010E80005D1022005F0EAF80020BDE8F883D5E82C
:1010F800EF3F43F00103C5E8E23F002AF7D1104B68
:10110800C4F80463D3E8AF3FDB074FF0020048BFE1
:10111800C7F8008105F0D2F80020BDE8F88300BFC9
:10112800FFFFFFFFFFFFFFFF0050015003000F000C
:1011380000E100E0005A0220F0DB0320FFFF7F00FF
:10114800ECDB032000000000414BD3F80423900798
:1011580005D43F4BD3F80423D10312D47047D3F8F6
:101168000421002AF5D000213A4AC3F80411D3F823
:101178000431136801331360354BD3F80423D103CA
:10118800ECD5F0B5344A83B0D2E8EF1F21F0010066
:10119800C2E8E40F002CF7D1CA0704D4D3F84031D1
:1011A8000BB903B0F0BD0021294A2A4BC2F84011FF
:1011B800D2F840111B68190A1B06BFF35F8FD2F8DB
:1011C8000425D31841F10001B2F5801F0AD2234A41
:1011D800D2E90067B34271EB070203D213F18073BF
:1011E80041F10001EFF3118C202282F31288BFF342
:1011F8006F8F1B4CD4E90267B342B9411CD39FEDF2
:10120800127B00204FF4803284ED027B104B216862
:1012180065682060C3F84823C3F84001D3F840311B
:101228008CF31188BFF36F8F0029BAD032463B4642
:101238000095884703B0F0BD8CF31188BFF36F8F1A
:1012480003B0F0BDAFF30080FFFFFFFFFFFFFFFF1C
:1012580000500150F4DB0320ECDB0320185A022075
:10126800005A0220000000002DE9F0412DED028B0C
:1012780082B0054691ED038AD2ED038ADDF8288015
:101288007BB318EE100A1C46FFF7C6F8064618EEA0
:10129800900A0F46FFF7C0F802460B46304639461B
:1012A800FFF712F90646E0680F46FFF7B5F80B4658
:1012B800024639463046FEF74FFF0246D8F80C0082
:1012C800164621F00047FFF7A7F802460B463046BE
:1012D8003946FFF723FA22A3D3E90023FFF770FB6F
:1012E80008B328EE288AB5EEC08AF1EE10FA29DB99
:1012F80018EE100AFFF790F80446D8F80C000D46CF
:10130800FFF78AF802460B4620462946FFF706FAF9
:1013180002460B4600200B99C1E9002302B0BDEC40
:10132800028BBDE8F08140F24313094928466C69F5
:10133800084A00910849A047012002B0BDEC028B81
:10134800BDE8F0814FF4A8730449EFE7AFF30080DC
:10135800180A0300A8090300000A03003C0A030056
:101368007B14AE47E17A943F2DE9F04F002491B009
:101378001D9D012ADDF8708085F82C40DDE91A7C76
:1013880061D03A6B0646012A8B469A462BD17B6B75
:101398004BB31B68002B64D01B68012B23DD85F839
:1013A8002C20D7F834909AF80020D9F80030092A70
:1013B8001B6805934BD13B78122B48D0D9F80820ED
:1013C800BB6803EB82035B68059A934251D044697A
:1013D8005549CDE90223554A6623CDE90021544AEF
:1013E8005449A0473BE09FED4E7B0EAA019263460D
:1013F8003A4651463046CDF800808DED0E7BFFF71A
:1014080033FF10B111B0BDE8F08F9DED0E0B2846EB
:10141800291D09F039FC3B69002B7CD1594642460D
:101428003046DAF810306B613B69AB61D8F81030A0
:10143800EB6105F10C031A9305F1080311B0BDE83F
:10144800F04F09F04DBC204611B0BDE8F08F3A4985
:101458007469632300913046354A3849A047012012
:10146800D0E7374944694B230091314A3349A047B3
:10147800F5E7059B9900836B069198476862B36B03
:10148800304606999847A862D8ED037A059ACDEDBB
:10149800067A002AD9F80030DAF80C00BBDD03F12F
:1014A8000409FEF7B9FF02460B460698CDE9062364
:1014B800FEF7B2FF0896CDF824A0059E8246CDF827
:1014C80014B08B46CDE90A78DDE9067859F8040BA3
:1014D800FEF7A2FF3A464346FEF7F6FF52465B4642
:1014E800FFF71CF941EC100B0EA90DA809F0CCFB75
:1014F8000D9A6B6A43F824200E9AAB6A43F82420AD
:101508000134A642E2D1DDE909A7089EDDF814B04E
:10151800DDF82C807FE704F00FFB00BFAFF30080FD
:101528000000000000000000D40B0300181803009E
:1015380074170300880A0300DC170300000A03007D
:101548000C0B0300000000002DE9F043C36883B0D2
:10155800CB1A31D40D46D0E9052101FB02F29A429B
:10156800044629D9B3FBF1F201FB123323BB00F186
:101578000806EFF311894FF0200888F31288BFF3AB
:101588006F8F30461EF07EFB002868D030461EF074
:101598009FFB2769FFB12F60E3693046013B256156
:1015A800E3611EF07DFB002849D089F31188BFF361
:1015B8006F8F03B0BDE8F0833D494FF489733D4A0E
:1015C8003D4802F049FD3D4802F046FD4FF489715F
:1015D800384802F037FDEFF3118388F31288BFF320
:1015E8006F8F83F31188BFF36F8F002B45D023686B
:1015F8009C4200D00BB92769CDE79A68002A49D0E8
:10160800D3E900219FED287B0A6051605A7B83ED66
:10161800007B22F002025A739F6003F118000193C5
:101628001EF084FC019B18469F671D611DF0C8FAD7
:101638004946304603B0BDE8F0431DF0F5BC4FF411
:101648009A731F4A1C481F4902F006FD31461E487E
:1016580002F002FD4FF49A71194802F0F3FC882356
:10166800174A1548194902F0F7FC3146184802F0A4
:10167800F3FC8821124802F0E5FC1649A423164A17
:101688000D4802F0E9FC154802F0E6FCA4211248D6
:1016980002F0D8FC124908488D230F4A02F0DCFCFE
:1016A8008D210D4802F0CEFC000000000000000073
:1016B8004CF90200BC5804004C3702009C59040045
:1016C800B4EE0200E4EE0200FCEE020014EF0200A9
:1016D8002CEF0200EC590400C0590400045A04001D
:1016E800085A040000000000F8B5EFF30583002B4A
:1016F8006ED183680446002B67D05D4A9268934296
:1017080060D1C368002B70D0012B03D0013BC360AC
:101718000020F8BDEFF31186202383F31288BFF36E
:101728006F8F54481EF0AEFA002875D051481EF04D
:10173800CFFAA068216990F90E3099421DD1EFF3D4
:101748001183202282F31288BFF36F8F83F31188ED
:10175800BFF36F8F002B52D02568AC4200D07DB903
:1017680000234448C4E902331EF09AFA002861D0E5
:1017780086F31188BFF36F8FCAE71DF06DFBDEE7B4
:10178800AB68002B66D0D5E900329FED377B002788
:1017980013605A606B7B85ED007B23F002036B734B
:1017A80005F11800AF601EF0C1FBA56095F90E3079
:1017B80028462361AF671DF003FA31462D481DF016
:1017C80033FCA5E74FF0FF30F8BD6FF01500F8BD0A
:1017D8002949D723294A2A4802F03EFC294802F021
:1017E8003BFCD721254802F02DFC27492448EF234C
:1017F800224A02F031FCEF21204802F023FC234961
:10180800A423234A1E4802F027FC224802F024FCA5
:10181800A4211F4802F016FC88231F4A1F491848B4
:1018280002F01AFC13491E4802F016FC88211A48D7
:1018380002F008FC4FF49A73174A1A49104802F04C
:101848000BFC0C49184802F007FC4FF49A71124837
:1018580002F0F8FB15490A488D230D4A02F0FCFBFB
:101868008D210B4802F0EEFB000000000000000094
:101878002CDC032050DC0320485B0400245B0400BC
:101888004C3702005C5B0400845B0400EC590400E4
:10189800C0590400045A0400B4EE020014EF020018
:1018A8002CEF0200E4EE0200FCEE0200085A0400ED
:1018B80070B50446EFF31186202585F31288BFF32F
:1018C8006F8F3F481EF0DEF900285DD03C481EF0BF
:1018D800FFF9EFF3118385F31288BFF36F8F83F35A
:1018E8001188BFF36F8F002B41D02568AC4200D020
:1018F80075B9D4E902329A4218BF01333048A3605F
:101908001EF0CEF918B386F31188BFF36F8F70BD40
:10191800AB68002B46D0D5E9003200249FED267B2A
:1019280013605A606B7B85ED007B23F002036B73B9
:1019380005F11800AC601EF0F9FA2846AC671DF0F6
:101948003FF93146BDE870401D481DF06DBB4FF4AE
:101958009A731C4A1C491D4802F07EFB18491C4812
:1019680002F07AFB4FF49A71164802F06BFB1949A2
:10197800A423194A154802F06FFB184802F06CFBC3
:10198800A421154802F05EFB88230E4A14490F482B
:1019980002F062FB0A49134802F05EFB88210948FD
:1019A80002F050FB104909488D230B4A02F054FB02
:1019B8008D21094802F046FB0000000000000000ED
:1019C80054DC0320B4EE0200E4EE02004C370200BF
:1019D800FCEE0200EC590400C0590400045A04004B
:1019E80014EF02002CEF0200085A04000000000067
:1019F8002DE9F04385B00F9D04460F2D0E469946FC
:101A080041D005F110031E2B40D8109B07322373D9
:101A180004234FF000089FED287BA57322F00705EB
:101A28004FF0F0326373771904F15803394684EDA7
:101A3800067BC4E91633C4F8088084F80F80204672
:101A4800326003F08BF884460E9A65662666029229
:101A58000D9A0CF10705019225F007050C9A7F1BDA
:101A680000924B46314620463A46A56603F0B6FC3E
:101A7800134BC4F854809B6803B1DB6E3846E366A9
:101A880005B0BDE8F0830F4B9945BED040F2452321
:101A98000D4A0E490E4802F0DFFA29460D486FF04C
:101AA8000F030E2202F0D8FA40F24521064802F050
:101AB800C9FA00BFAFF3008000000000000000007A
:101AC8002CDC03201DE001000C5C0400305C0400E9
:101AD8004C370200B05C04002DE9F04F2DED028B6D
:101AE800054683B0EFF311874FF0200B8BF3128874
:101AF800BFF36F8F6C481EF0C5F8002800F0A08077
:101B0800DFF8C48168481EF0E3F8D8F80040DFF831
:101B1800BC914445C9F8005000F08F80002C00F0BB
:101B2800AD80CDF804B09FED5E8BDFF898B1DFF89B
:101B380078A102E0002C00F0AE80D4E90462E91735
:101B4800B54271EB020052DBDBE90021921941EB4F
:101B5800E671204684ED048BCBE900211EF0C0F825
:101B680050461EF09DF8002878D087F31188BFF3FF
:101B78006F8F2046A2689047EFF31187019B83F38C
:101B88001288BFF36F8F50461EF07CF8002857D09C
:101B980050461EF09DF8D9F80050D8F80040AD1B0B
:101BA8004445C9F80050C5D100216FF00040DBF86A
:101BB8000020C9F800105219CBF80020DBF80420E7
:101BC80042EBE572CBF80420002105F04FFD3648C2
:101BD8001EF066F8002841D087F31188BFF36F8F95
:101BE80003B0BDEC028BBDE8F04F1DF0D3BF761BF0
:101BF80062EB010226616261D8F800400022C9F850
:101C08000020DBF800205219CBF80020DBF8042074
:101C180042EB01024445CBF804200BD054B1D4E97F
:101C28000403B0F1004F73F1000203DA002BB8BFD0
:101C38000020C9E76FF00040C6E7DFF888B0B3E7D7
:101C480088231A4A1A491B4802F006FA16491A4804
:101C580002F002FA8821154802F0F4F94FF49A7359
:101C6800124A1649134802F0F7F90F49144802F0CE
:101C7800F3F94FF49A710D4802F0E4F9114A6FF044
:101C88000040D2E900315B1941EBE571C2E900314E
:101C9800C9F8004098E7E917B0E700BFAFF3008044
:101CA80000000000000000006CDC0320B4EE02001D
:101CB80014EF02004C3702002CEF0200E4EE0200A1
:101CC800FCEE0200785C02206008002068DC03203B
:101CD80010EE103A33F0004210B52DED028B06D10C
:101CE8000120BDEC028BBDE810401FF0B7BE002BF1
:101CF80005DABDEC028BBDE810401FF0BDBEB3F1A4
:101D0800FF4F06DB30EE008AB0EE480ABDEC028BCE
:101D180010BDB3F5000F6049BBBFDFED607A6FF00F
:101D28001802002260EE277AB8BF17EE903AF7EE55
:101D3800007ADC15C3F316037F3C1944144401F4FC
:101D4800000282F07E5204EBD15403F10F011A43D2
:101D580007EE102A524A0A4037EE678AB2BBB5EE40
:101D6800408AF1EE10FA0FD1002C00F08C8007EEBB
:101D7800904A9FED4C0A9FED4C7AF8EEE77A27EEF1
:101D8800808A07EE878ABFE741A1D1E90001FEF703
:101D980035FEB6EE007A07EE900A07EEC87A68EECE
:101DA800087A27EE277A14B938EE478AACE707EEA7
:101DB800904ADFED3C6AF8EEE77A07EEE67A37EE0E
:101DC800488A9FED397A17EE878A9DE7F0EE007A08
:101DD8009FED365ADFED364A364A78EE277A1A44AE
:101DE800C3F5571388EE276A07EE904A03F5227366
:101DF8001343F8EEE76ADFED307A002B66EE065AF9
:101E080025EEA57A07EE275ADFED2C7A45EE077AFC
:101E18009FED2B5A07EE875ADFED2A7A47EE274ABD
:101E2800DFED297A44EE877A67EE877A45EE257AE0
:101E38001ADDB6EE007A28EE077A27EE087A77EEF2
:101E4800877A67EE867A14B937EE677AACE79FED42
:101E5800156A46EE867A37EE677A37EE488ADFEDFE
:101E6800127A16EEA78A4FE778EE677A67EE867AD7
:101E780014B938EE678A47E79FED0A7A46EEC77AC3
:101E880037EEC88AEBE79FED118A3DE7AFF3008094
:101E9800555555555555D53F20FB4A000000004C77
:101EA800F0FF7F00D1F717378071313F25333A3E75
:101EB800298E633E305CCFFF9788173E2549923EB6
:101EC800ABAA2A3F4FD01C3ECDCCCC3E0000000030
:101ED800704700BF2DE9F04F95B000214FF4A020C6
:101EE8001DF0D6FB5E4802F07BF85E4802F078F8F9
:101EF8005D4802F075F85A4802F072F800F03CFBB1
:101F08004FF4805503464FF4C844CDE9004503F526
:101F1800F53404F580744FF47A424FF4FA4153488B
:101F2800029402F05DF8524D28461BF095FD0028FA
:101F380000F0C981D5E90187D8F800302E699905E4
:101F480040F1CB813368092143F40073336028469C
:101F58003B68484A9847041EC0F29F81D8F8003071
:101F68009A0540F1C98133689B054FF4007154BF4D
:101F7800FB683B692846984700280446C0F29A81C6
:101F880000214FF424701DF083FB3B4C3B4820603C
:101F98001BF062FD002800F09C81394B00211A4695
:101FA8004FF404754FF47A574FF4C8562068C82484
:101FB800DFF804C122F80219C2E9017CC2E903640E
:101FC80023F8025C83681B689847041EC0F26D8181
:101FD8002C4802F005F82C492C4802F001F82C494D
:101FE8002A4801F0FDFF2B49284801F0F9FF2A484B
:101FF80001F0F6FF00F0BAFA002840F060814FF4D3
:102008007A74264801F0ECFF4FF47A534FF4FA62E1
:102018004FF4FA412248009401F0E2FF0020002129
:102028000024CDE906011F4B4FF48052CDE903444B
:10203800CDE901441C491D4800941CF0C9FB1C4B08
:102048000BB1AFF300801FF037FF1A4B185800246C
:1020580001210B94DFF864B01DF074F9099432E0A3
:10206800E83502000836020024360200483602002D
:102078005C1F020001000A0094D303209C1F020089
:1020880082D3032000380200083802000C3802000E
:10209800143802001C38020088F802007038020068
:1020A800A0380200D90E000070DE03203858022044
:1020B8000000000008000000D0080020205802207E
:1020C8009548FFF711FB4FF0FF324FF0FF3393486D
:1020D8001CF0E2FADFF840A24FF0FF324FF0FF3376
:1020E80050461CF0FBF9DBF80840B4F57A5FE7D3FB
:1020F800DBF804508A4BC5F5FA46B6F57A5F3746E1
:1021080028BF4FF47A574FEA47084246854803EB01
:1021180045011FF0D6FCB6F57A5FC0F0B4804FF4E5
:10212800FA42814B05F57A55A3FB0513DB0A02FB3E
:102138001355DBE90392A4F57A54CBF80840CBF8A1
:10214800045008927448FFF7CFFA1DF0D5FF4FF4FA
:102158007A5207460D460DA8724900F023FA1DF081
:10216800CBFF0E46804600F011FA0A9000F014FAF0
:102178004FF47A7101FB04F46B490346A1FB041484
:102188004FEA4810A10A7401B0EB080044EAD86489
:1021980064EB0604A40044EA9074800010EB080085
:1021A80046EB0406F60046EA5076C0F3103040EAE3
:1021B80046407C016E01E41B46EAD76666EB0506DD
:1021C800B60046EA9476A400E41945EB0605ED004E
:1021D80045EA5475C4F3103444EA4544001B0090A2
:1021E8000A9A524801F0FCFE099B4B4503D10B9B10
:1021F800089A934204D04946089A4D4801F0F0FEE7
:102208009DF84C30002B37D00E9C0F9F022C98BFA6
:10221800484B0D9894BF53F82450474D0297FEF74A
:10222800FBF82A46CDE900012146444801F0D8FED2
:10223800434801F0D5FE00243E4EDFF8388110AD4A
:10224800A74216DD2868FEF7E7F802460B46404627
:1022580056F8041B013401F0C3FE032C05F10405F4
:10226800EED1384801F0BCFE089BCDF824900B93C2
:1022780032E700220023EAE700F082F901463248FB
:1022880001F0AEFEF0E7274BC7F57A522449520019
:1022980003EB08001FF015FC41E721462B4801F02D
:1022A8009FFE204615B0BDE8F08F2146284801F072
:1022B80097FEF6E70146274801F092FEF1E7264827
:1022C80001F08EFE9BE6254801F08AFE6FF01204AD
:1022D800E7E7234801F084FEF8E7224940F211437A
:1022E800214A224801F0B8FE214801F0B5FE40F22B
:1022F80011411D4801F0A6FE1A4940F2A2631A4A8C
:102308001A4801F0A9FE1A4801F0A6FE40F2A2619F
:10231800154801F097FE00BF1C0900206C09002039
:1023280080D90220805C0220D34D6210E838020078
:1023380028390200D0390200E03502008439020051
:10234800B439020088F802005C39020080370200C4
:10235800E0370200A037020024380200C03602002D
:10236800C83702000C370200D83602004C3702008A
:102378006C370200C43902000B4B186880B103683F
:10238800C31A1A88082A0CD91A8983183AB18258AC
:102398009858134420B158680430184470471046C0
:1023A80070470020704700BF44D50320704700BF26
:1023B800704700BF38B5D0F8843104461F2B14DCB1
:1023C80003EB430300EB8305696005F0EBF900219B
:1023D800A860D4F8843103EB4302184604EB820268
:1023E8000133D160C4F8843138BD012384F88831C1
:1023F800202038BD10B504464FF4C6711FF05CFBB1
:10240800204610BD10B50446C0211FF055FB2046DC
:1024180010BD00BF38B5D0F8BC50052D11D875B126
:10242800002300F1900202E001339D4207D052F8E8
:10243800044F8C42F8D12A3350F8230038BD0020CD
:1024480038BD03F079FB00BF2DE9F041D0F890606A
:10245800EEB180460F460446002504E00135AE4241
:1024680004F11C0410D0A369202BF7D13946E06988
:10247800FEF7BCFB0028F1D1C5EBC50508EB8508C4
:1024880008F10400BDE8F0810020BDE8F081304685
:10249800FBE700BFB0F58D5F0BDA184B1A686AB11D
:1024A800D3E90123302A07D0012A0DD1B3F58D5F76
:1024B80004D09FED130A70475E2BFAD1114B03EB42
:1024C800800393ED000A7047B2F58D5F02D1012BAE
:1024D800EFD1F3E75E2AECD1302BEAD10A4B094958
:1024E800A3FB00C35B0903EB430CA0EB0C1002FB3E
:1024F800003301EB830393ED000A7047C00400200A
:102508000000000080E90120ABAAAAAA202917D060
:1025180030B4D0F89050ADB10246002302E0013348
:10252800AB420AD094691C32A142F8D1C3EBC30371
:1025380000EB8300043030BC7047002030BC70478B
:10254800002070472846F6E738B5D0F884318B422A
:1025580000D838BD0D46044605F024F905EB4505BD
:1025680004EB8504A368C01AE06038BD014B1878F5
:10257800704700BF9C630400004870478026020033
:10258800014B1868704700BFD4040020014B18683D
:10259800704700BF2CD50320014B1868704700BF57
:1025A80028D503202DE9F04F00232DED028BAC4CEC
:1025B80099B02360AB4C0690236011B1B2F57A5FF5
:1025C80011D00023A84AA9491160069AC2E900332C
:1025D800C2E90233C2E904339361069819B0BDEC2D
:1025E800028BBDE8F08FDFF80CA30D469AF8003097
:1025F800002B53D19E4B1A78002A40F0F580012217
:102608001A709C4B1978002940F068829A48036830
:10261800C258034499489A1A03601088042815D9A7
:10262800918899B15958032910D1FFF7A5FE28B10F
:102638000268821A11880A2900F2DC800022904B75
:102648001A60894B8F4A1A600023BEE7864B8E4872
:10265800032218608D4801F0C3FCF5E7D0F8188014
:102668008B4BB8F1000FC3F8008041F346803B68FC
:10267800884AD86E01238AF800307B4B1A6007F02D
:102688001FFD03464FF4F030314600904246824821
:1026980001F0A6FC0521814801F0A2FC1DF02CFDEB
:1026A8007F4FCDE90B103B787BB97E4E3378002BFA
:1026B80040F095804FF480617B480FF0B1FD0146F2
:1026C800002840F0878001233B7005F26E23774D88
:1026D8004FF48D420021284607931FF0FFF900238D
:1026E8009FED738A734F099311AB0593DFF8088246
:1026F800A7F53263DFF8049208950A930D954FF415
:10270800805200210A981FF0E9F9079A6A4B32F9BA
:10271800021F07EE901AF8EEE77AE3EC017A9F427F
:10272800F5D14FF0080A64499FED640A08464FF452
:10273800C8720EF01BFD604A4FF4C873104660491A
:102748000EF0FEFC00235F4A0A9957480FF0B2FCCE
:102758005D4A5C48A2F580514B6882ED018A13609E
:1027680081ED018A40F2012249460EF009FD5346E7
:10277800089C564DA246564E1C46DFF884B10DE023
:1027880018EE103AA845CAF800300BEB840B0AF58E
:10279800BC7A06F102060FD035F8024F8DED118A8A
:1027A800002CEDD03088059B2246594609EB800065
:1027B8000EF0B6FC119BE5E7099B01335E2B0993EC
:1027C80000F09782089B04330893079B03F5A073D6
:1027D800079394E73F4801F003FC01233370224A32
:1027E8003D4900231160F0E61F4B3C48196801F091
:1027F800F7FB29E752898118002A3FF41FAF835855
:10280800C9581F4B002919607FF71BAF202900F317
:1028180068824FF48072002131481FF05FF900236D
:102828003049DFF8E0900B602F4A3049C9F884310D
:1028380089F888310B70136813F0010300F04282A5
:102848002B4E11AB1846059309F0CCFED6F8902014
:10285800002A00F002844FF00008254B5BE000BF1F
:102868002CD5032028D50320D4040020E839020001
:1028780065DE03209C630400784D020044D50320E4
:1028880030D50320C43A02007C3A02008C3A020098
:1028980034D50320843C0200883C0200E83C020056
:1028A80068DE032067DE032048D5032080E9012085
:1028B8000000000040530220004D022000000038B4
:1028C800B02C02001038022010480220F02B020021
:1028D800502C0200383D0200683D0200003A020018
:1028E800F858022024D5032060D4032064DE032096
:1028F80064D4032066DE03204E2C02000030022040
:1029080050220200D804002008F10108904503F184
:102918001C0300F03C819F69032FF5D1CC4807F0D8
:1029280027FC3946CB4807F023FC05980AF06AFFD4
:10293800D6F89020002A00F09F864FF00008C64B7A
:1029480006E008F10108904503F11C0300F0F68049
:102958009F69112FF5D1BE4807F00AFC3946BD48DA
:1029680007F006FC05980AF039FFD6F89070002F9A
:1029780000F085860022B84B05E00132974203F14A
:102988001C0300F0828099690129F6D18846B04875
:1029980007F0EEFB4146AF4807F0EAFB05980BF05D
:1029A8004FFBD6F89020002A00F07E864FF00008F2
:1029B800A94B06E008F10108904503F11C0300F05B
:1029C80094809F692D2FF5D1A14807F0D1FB394696
:1029D800A04807F0CDFB05980AF06CFCD6F89020CB
:1029E800002A00F05E864FF000089B4B05E008F1D6
:1029F8000108904503F11C031ED09F69092FF6D1E9
:102A0800934807F0B5FB3946924807F0B1FB934E5F
:102A1800336813F0010300F03F819148914F38600B
:102A280005F054FF0646002800F0DA8000238E4A9D
:102A38008E493B60116007E6052A00F0A082531C0E
:102A48004FF00908C6F89030D6F8BC30C2EBC20285
:102A580006EB8207864906EB8302DDF814E007F1EE
:102A6800040CC2F8948003F12A02013346F82210BC
:102A7800C6F8BC30BEE80F00ACE80F009EE80700BF
:102A88008CE80700C7F81880C1E7052F00F003821B
:102A98007B1C4FF00108C6F89030D6F8BC30C7EB65
:102AA800C70706EB8302734906EB8707DDF814E0D6
:102AB80007F1040CC2F8948003F12A02434446F853
:102AC8002210C6F8BC30BEE80F00ACE80F009EE844
:102AD80007008CE80700C7F818805FE7624B664A72
:102AE80066481A6001F07CFAAEE5052A00F0968285
:102AF800531C4FF02D08C6F89030D6F8BC30C2EB06
:102B0800C20206EB82075E4906EB8302DDF814E099
:102B180007F1040CC2F8948003F12A02013346F845
:102B28002210C6F8BC30BEE80F00ACE80F009EE8E3
:102B380007008CE80700C7F818804CE7052A00F062
:102B4800B381531C4FF01108C6F89030D6F8BC304A
:102B5800C2EBC20206EB8207464906EB8302DDF8A8
:102B680014E007F1040CC2F8948003F12A0201333F
:102B780046F82210C6F8BC30BEE80F00ACE80F00DB
:102B88009EE807008CE80700C7F81880EAE6052ADF
:102B980000F0FE81531C4FF00308C6F89030D6F8B9
:102BA800BC30C2EBC20206EB8207364906EB830251
:102BB800DDF814E007F1040CC2F8948003F12A024E
:102BC800013346F82210C6F8BC30BEE80F00ACE866
:102BD8000F009EE807008CE80700C7F81880A4E6F5
:102BE8000146386805F094FCDFF8A8803146C8F83B
:102BF8000000386805F0BAFC234AD8F800301060A5
:102C0800002B00F0B781002800F0B48199680029F2
:102C180000F03B850A68002A40F3348533468C4629
:102C280001265CF8044F01339A4204FB06F6F8D1FA
:102C3800002E00F33C8500230422144DC5E900232F
:102C4800C5E90233084B124A2E611A60FCE400BF42
:102C5800483B0200783B020064D4032098D3032049
:102C68009CD3032040D50320D4040020E43B020079
:102C780091B3000021B500002C3A02004C3A020042
:102C880065B60000F5B1000038D50320C004002067
:102C9800183C02003CD50320C24ACDF808901168C0
:102CA800039301934FF4F033BF4A0093BF48C04BDE
:102CB80005F0D0FB0123BF4ABF49BC48336001F08F
:102CC80047FFAAE60121B84E1160C6F89030C6F851
:102CD800BC30BA4B3046B74AB949336001F038FFC7
:102CE800AFE5B84BB84820221860B84801F078F929
:102CF800AAE4B7499FEDB70A08464FF48D520D9DD7
:102D08000EF02AFAB2494FF48D5208460EF04AFAEC
:102D1800AF499FEDB10A08464FF48D520EF026FADE
:102D280000230E9300234FF48D510F93A8480FAB47
:102D38000EAA0EF047FADFEDA97A9DED0E7A37EE6E
:102D4800677AA74BD5ED007AF4EE477AF1EE10FAE0
:102D580048BFF0EE477AE5EC017AAB42F2D19FED3D
:102D6800A18A4FF48D519A4810AA8DED108A0EF061
:102D78004DFA9DED100A9649B1EE400A08464FF407
:102D88008D520EF0E9F992494FF48D520846059B91
:102D98008DED118A0EF0C4F99FED937ADDED116A7D
:102DA800C6EE877AF4EEC87AF1EE10FA00F1DF8009
:102DB800FFF615ADF1EEE77A9FED8C7AB7EE000AD3
:102DC80077EE877A82498A4D4FF48D52084680EE15
:102DD800270A0EF0CBF92B69B3F58D5F08D12B6864
:102DE80073B1012B00F02781023B012B40F21F81B8
:102DF800744A804900231160FFF7E7BB5E2BF7D1C7
:102E08001DF07AF98C467C4A4FEA401817684FEA59
:102E18004C12B8EB000842EAD0620C9C0B9B62EBA8
:102E28000C024FEA8801920009184FEA43160B98E2
:102E38004FEA441342EA98724CEB020246EAD4661F
:102E48001B1B66EB0006B60046EA93769B00181932
:102E58000B9B4FEAC20243EB060342EA5172DB00C6
:102E6800C1F3103141EA424143EA507397F800E058
:102E7800C0F3103242EA4342604B891ABEF1090F8F
:102E880019601AD0BEF1010F41D04E4A5C490023A7
:102E98001160FFF79ABB01215A4807F069F93946D2
:102EA800594807F065F979E51121564807F060F9A6
:102EB8004146554807F05CF954E5D5F81090B9F14A
:102EC800000F35DD00266FF07F0414E03046FFF771
:102ED800E1FA80EE270A3D691EF05CFD2B187F2B76
:102EE800A8BF7F23A342B8BF23465BB201364E4535
:102EF80088F800301CD0D7ED037AF5EE407AF1EE71
:102F080010FA7B6803EB0608E0D10023EEE7D5F85A
:102F18001080B8F1000F0BDD00257B68284603EB15
:102F28008504FFF7B7FA0135454584ED000AF4D169
:102F38000026DFF8E490C9F8846189F888611DF0FB
:102F4800DBF8324B074618680D4605F043FE0028AB
:102F580000F0858006991B4B2D4AC1E90166C1E93D
:102F68000366C1E905660E601A60FFF736BBF0EE2E
:102F7800487A1FE7134B274A1A60FFF765BB0921F8
:102F8800204807F0F5F841461F4807F0F1F83EE5FC
:102F980003211C4807F0ECF841461B4807F0E8F805
:102FA800C3E400BF44D5032064D403209CD303208A
:102FB8008009002060D50320D1850000D83E02009A
:102FC800B5230000D4040020E43A02000C3B0200C0
:102FD80080E90120CCBC8C2B67F98A400000A04214
:102FE800003002200000000000008D45BD37863506
:102FF800C0040020843D02003CD503202CD50320CA
:10300800A03D02009C3B0200D03B020040D50320BB
:10301800C03D0200FC3B0200D80400202D219B4843
:1030280007F0A6F841469A4807F0A2F8D3E4EB68FF
:10303800012B7FF4DDAED5E90123302A3FF4DEAE63
:103048005E2A00F01F81012A6ED0B2F58D5F7FF4F1
:10305800CFAE012B7FF4CCAED2E601239BE51DF069
:103068004BF88C468B4A4FEA401892F800E04FEA3A
:103078004C12B8EB000842EAD06262EB0C024FEA4D
:103088008801920009184FEA45164FEA471342EAA9
:10309800987246EAD7664CEB0202DB1B66EB05002A
:1030A800800040EA93709B00DE1945EB0003D200D4
:1030B80042EA5172DB00C1F3103141EA424143EA6E
:1030C8005673C6F3103242EA4342734B891A1960A9
:1030D800BEF1000F08D1D9F88431202B079300F3F3
:1030E800E980002B00F3E88000236C496C4A0E68E5
:1030F80005991193C1E90133C1E90333C1E90533E6
:1031080012681396117809296AD0012911D00698F6
:10311800644A6549C0E90133C0E90333C0E90533AE
:1031280003601160FFF759BAB3F58D5F7FF460AEA5
:1031380066E6002E40F3988014AB18465168B2003A
:103148001EF0BFFC0346012E9DED148A5FD015AA20
:1031580003EB8608F2EC017AB4EE678AF1EE10FA16
:1031680048BFB0EE678A4245F4D11D46DFED4F8A6D
:103178001F4697ED000A30EE480A1EF021FBA7EC27
:10318800010A474578EE808AF3D1F5EEC08AF1EE60
:1031980010FA07D995ED007AC7EE287AE5EC017A9E
:1031A8004545F7D1DDED146A9DED157AF4EEC76A51
:1031B8000023F1EE10FACDED116A129300F12D8182
:1031C800022E41DDDDED167AF4EEE76AF1EE10FA33
:1031D8003AD5B0EE677A02238DED117A129333E077
:1031E8009E4241DD14AB92ED037A18465168176987
:1031F800751811F9012BD21B07EE902AF8EEE77A21
:1032080067EE877AA942E0EC017AF2D19BE7B5EE46
:10321800C08AF1EE10FA2ADAB0EE480A1EF0D0FAA7
:10322800B7EE007A30EE077AC0EE077AB6EE007A8B
:10323800F4EEC77AF1EE10FAACBF01230023CDED0E
:10324800147ACDED117A12930122DDE905658DF826
:103258005C20144B164A1A600FCE0FC596E807007B
:1032680085E80700FFF7B9B9149B1193ECE7B1EEB5
:10327800480A1EF0A5FAF7EE006A30EE267AC6EE86
:10328800877AD3E7302B7FF4B3ADB9E59C3B0200D6
:10329800D03B020064DE032028D5032034D5032068
:1032A80038D50320D4040020643C0200000000004C
:1032B800843C020020230793B24BB34A18469A462F
:1032C800994613460799089202EBC108196850F805
:1032D8000C2F5218596843F8082B41F10001984502
:1032E80043F8041CF2D1A94A13685C1C042C14602E
:1032F8007FF6FAAE00252F46A34EF6E802012246D5
:103308000023FDF71BFC401947EB0101B0450546BA
:103318000F46F2D19E4DCDE90A014FF400422146F5
:103328009C482E6800F05CFE99F88831002B40F02C
:1033380023812A68079B934203D01946964800F0D8
:103348004FFE079B4FF0000B9E42A8BF1E460996F2
:10335800089C8E4AF4E80201002312680894FDF7DD
:10336800EDFB03464501281A4FEAD36161F10002DB
:1033780052024702FF1842EAD05242F10006B40155
:10338800BA01D21B44EA976464EB0604D21844F1EC
:10339800000612F5804446F10002E40B44EA424478
:1033A800DDE90A6756EA070200F0E480ED1A61F1E8
:1033B8000002920042EA90728000C01842F10002B6
:1033C800D10041EA507132463B46C000FDF7B6FBDA
:1033D8000546099BDAF804105B452ADC002900F051
:1033E800F3800A262346B5FBF6F406FB14550A4675
:1033F800CDE90045594669480BF1010800F0F0FD98
:10340800674800F0EDFD079BC34643450AF10C0AE7
:103418009ED10123634A137066E6022E07DDDDEDB7
:10342800167AB4EEE77AF1EE10FA3FF5D2AE012340
:10343800D2E6FEF7A1FF03460028CFD00268821A21
:1034480010880A28CAD952899E18002AC6D09A58C4
:10345800B35816445B45C1DD9B4580F08980524BCB
:103468000BF1010856F82890196806EB880606EB58
:10347800090700296DD00B68CB1A1A88062A68D963
:10348800D8880B18002864D00A5856F8091098589C
:10349800791AB1F800C01A44BCF1040F55D80028B5
:1034A80057DD0023013352F8231002EB83035A58E7
:1034B8000B449A1A11880A2952D95289002A4FD0E6
:1034C8009B58D12B4AD8394A52F82320002A41D197
:1034D800234659460A24364AB5FBF4FC04FB1C541F
:1034E8002E48CDE900C400F07BFD56F80930FB1AE0
:1034F8001A88082A84D91B89FA18002B80D0FB580F
:10350800D358002B3FF47CAF2A4800F069FD56F8E9
:103518000930FB1A1A88082A40F22F811B89002BD0
:1035280000F02B81FA583B449958134401B3596869
:10353800FEF722FF034620B10268821A1088042889
:1035480052D81D4800F04CFD5AE78B8853B9002823
:10355800A8DC174A234659460A24BDE7174AF9E763
:10356800174AF7E7FB58002BF3DB8342F1DA99D3CC
:1035780002F0BCFA00252CE72021124800F030FDAB
:10358800D7E600BFD8040020F858022024D503202D
:1035980030D50320D03D02004C3E0200943E02008C
:1035A80088F8020064DE032044D503202C4A020078
:1035B800DC390200803E02008C3E020014F6020054
:1035C800E4390200043E020023460A24B5FBF4F65F
:1035D80004FB16545946CDE90064694A69480BF161
:1035E800010800F0FDFC0BE792889C18002AA8D07F
:1035F8009A580029A3581444A3DB9942A1DA8B42B4
:10360800B6D9013154F8212004EB8104A35814449D
:10361800E31A1A88042A94D99B88E218002B90D0C0
:10362800E3585948D55800F0DBFC002D20DD4FF059
:103638000009564F564E02E0304600F0D1FC236890
:10364800E31A1A88042A40F298809B88002B00F01D
:103658009480E258234499581344494588D909F17C
:103668000109384653F8291000F0BAFC4D45E3D15A
:10367800484800F0B5FCC3E60123FFF763BA01230D
:10368800FFF707BA0126FFF7D6BA04220023424DF6
:103698000E46C5E9002300220023C5E90223FFF7EF
:1036A800D1BA0123FFF7CCB90123FFF722BA042AC4
:1036B80040D0032A30D1D1F804C0BCF1010F7FF407
:1036C800BAAA8A68002A7FF7B6AACB68002B7FF7C8
:1036D800B2AA4FF0010E3049B6F58D5FC1E900C2BC
:1036E800C1E903E68B6012DC0378012B0AD0092BB1
:1036F8003EF4B4AF0022294B1A60294B294A1A60BC
:10370800FEF7A2BF83694FEA9308FEF7A9BF244BCF
:10371800254A1A60FEF798BF022A7FF48CAA4A68E5
:10372800012A7FF488AA8B68002B7FF784AA4FF0C0
:10373800000CCEE74B68012B7FF47DAA01F108024B
:1037480092E80C10BCF1010F0ED0012A7FF473AA85
:10375800002B7FF770AABCF1000F7FF76CAA1A46FE
:1037680063464FF0030CB4E7002A7FF764AA002BE6
:103778007FF761AA4FF0020CABE700231B68FFDE5E
:10378800DC390200943E0200883E02006C0403000B
:10379800903E0200F00E0300C004002034D5032040
:1037A800D4040020643C0200383C0200024A034969
:1037B800034801F0CDB900BF60D50320B92300004C
:1037C800D80400200020704710B4836800EBC10CB7
:1037D800B3F5004F0CD3DCF80C3099421FD0DCF85D
:1037E8000810043200EBC10440F82230E3600BE01B
:1037F800BCF80630994212D0BCF80410043200EB31
:10380800C10440F82230E380826800EBC300B2F5BF
:10381800004F2CBF816081805DF8044B7047012107
:103828000024C36802F1040C01FA02F223EA02033D
:10383800C36040F82C405DF8044B704770B486684C
:10384800541AB6F5004F00EBC1034FEA4405A1EB4B
:1038580002011FD35E685D6001EB560186684D006A
:10386800B6F5004F00EBC2032CBF5D605D80856834
:10387800B5F5004F2CBF40F8324020F8324084683C
:10388800B4F5004F0CD370BC5B6802EB530340F8EF
:1038980033107047B3F802C05D8001EB5C01DDE7CF
:1038A8005B8870BC02EB530220F83210704700BFEF
:1038B800836810B5B3F5004F00EBC10100EBC20CF3
:1038C80019D3DCF804304C685B0803EB54035C0044
:1038D8004C608168B1F5004F06D3DCF8041002EBA8
:1038E800510240F8323010BDBCF8021002EB510210
:1038F80020F8323010BD4B88BCF802E05B0803EBBF
:103908005E034FEA430EA1F802E0E2E7836800EBAA
:10391800C102B3F5004F0AD201235288DA400132BE
:10392800D21AB2FA82F2C2F11F02FFF74DBF5268F3
:103938005208012A01D00223F1E7704730B48468A5
:1039480000EBC102B4F5004F22D2012553885B0871
:1039580001335B1BB3FA83F3C3F11F0300EB830C42
:10396800DCF81050D5B901259D40C368B4F5004F67
:1039780043EA0503C360CCF810102CBF9160918016
:103988008368B3F5004F2CBFD160D18030BC70473D
:1039980053685B08012BF9D00225D9E7B4F5004F2D
:1039A80000EBC50C2BBFDCF80830BCF80430936082
:1039B8009380846800EBC303B4F5004F2CBFD56037
:1039C800D5808268B2F5004F2CBFD960D980836852
:1039D800B3F5004F2CBFCCF80810ACF8041030BC7D
:1039E800704700BFF8B583680446B3F5004F0D462D
:1039F8004FEAC10600EBC10714D3796805EB510102
:103A080000EBC1035B68D80736D5A159691A04EBE6
:103A1800C1035B68DB0714D529462046BDE8F8409A
:103A2800FFF78CBF798805EB510100EBC1035B8878
:103A3800DA0721D5A15B691A04EBC1035B88DB07B0
:103A4800EAD42046FFF762FFA3682046B3F5004F8B
:103A58002CBFA159A15B2A46691AFFF729FFA36861
:103A68002046B3F5004F2CBFA359A35BED1A294696
:103A7800BDE8F840FFF762BF2046FFF747FFA3689D
:103A88002946B3F5004F2CBF7A687A88204605EBA3
:103A98005202FFF70DFFA368B3F5004FB5D2A15B43
:103AA800691A04EBC1035B88C9E700BF2DE9F84335
:103AB8008668B6F5004F34BF0B4601F1FF33B3FA01
:103AC80083F3C3F11F0900EB89073D69A5B12C46B3
:103AD8004FF0030CB6F5004F00EBC40E17D3DEF819
:103AE8000420B1EB520F27D9DEF80C40BCF1010CD1
:103AF8003C6101D0A542EDD14FF0FF34C268C3F15B
:103B080020039C4014400AD12046BDE8F883BEF843
:103B18000280B1EB580F0FD9BEF80640E6E794FAD9
:103B2800A4F2B2FA82F2131D50F823402146FFF79F
:103B38004BFE2046BDE8F8834A462146FFF744FE7F
:103B4800E2E700BFB1B338B500680C468368B3F547
:103B5800004F17D20439091A21F00702024453888A
:103B6800C908DD0735D501EB530C30F83CE0ACEB68
:103B78000E0C8C451FD123F001035380BDE838405B
:103B8800FFF730BF0839091A21F0070202445368C9
:103B9800C908DD071DD501EB530C50F83C50ACEBC0
:103BA800050C614507D123F001035360BDE8384097
:103BB800FFF718BF7047B7230D4A0E480E4900F0AB
:103BC8004BFA21460D4800F047FAB721084800F0A3
:103BD80039FAAF23064A0748094900F03DFA214659
:103BE800084800F039FAAF21014800F02BFA00BF6D
:103BF80090EC02004C37020000ED020028ED0200B4
:103C0800B4EC0200C8EC0200F8B50568002933D00E
:103C1800AB6801F00704B3F5004F2CBF082204225B
:103C280007341444E40804EBD1049C4228BF1C4622
:103C380028462146FFF73AFFF0B1AB68C600B3F556
:103C4800004F05EBC0070FD27B88B4EB530F15D399
:103C580043F001037B80AB68B3F5004F34BF042306
:103C680008231E44A819F8BD7B68B4EB530F05D38D
:103C780043F001037B60EEE70020F8BD04440146F1
:103C880022462846FFF7DAFD2146FFF757FEAB68C4
:103C9800B3F5004F01D37B68EAE77B88D8E700BF1C
:103CA8002DE9F84307684E1EBD681446B5F5004F68
:103CB80034BF042308230E4060D0C1F1000909EA8B
:103CC80001094B4506F1FF3228BF4B46324240F00E
:103CD8009280002C58D0B5F5004F2CBF0820042046
:103CE800F31A04F00701073103F007020A44E10858
:103CF800024401EBD30101EBD201A94228BF2946B6
:103D08003846FFF7D3FE804600283DD0BB6809EB54
:103D1800C005B3F5004F34BF0422082215443D44C2
:103D280006F1FF321544B5FBF6F534BF6FF0030119
:103D38006FF0070106FB05F5A5EB09052C440734D0
:103D48002944C91B24F00704E41BB0EBD10F4FEA48
:103D5800E4044FEAD10628D3B3F5004F07EBC608B1
:103D680016D2B8F8023006EB530294422CD343F033
:103D78000103A8F802302846BDE8F883994235D9EE
:103D8800B1460E46002CA6D100252846BDE8F8838A
:103D9800D8F8043006EB5302944215D343F00103DC
:103DA800C8F804302846BDE8F8834146324638460C
:103DB800FFF744FD4146FFF7C1FDBB6807EBC608A6
:103DC800B3F5004FCDD3E3E7314622463846FFF737
:103DD80035FD2146FFF7B2FDBB68B3F5004F02D3AE
:103DE800D8F80430DAE7B8F80230C0E71146BDE881
:103DF800F843FFF709BF07494FF4A673064A074877
:103E080000F02AF9064800F027F94FF4A671024895
:103E180000F018F964ED020090EC02004C37020043
:103E280080ED0200B2F5802FF8B569D2042A88BF68
:103E3800042340F29480D21ACC1D8D1824F0070474
:103E480025F007052D1B172D4FEAD50778D9B5F5AD
:103E5800802F38BF3A464FF0000328BF07F1FF32E2
:103E6800B2FA82F20460C4E902732CBF0223012370
:103E7800C2F12406B600073603EBD603BB42C2F1F3
:103E880020024FEAD6064CD80021920004F1100017
:103E98001DF024FE7300BA1BB5F5802F04EBC60194
:103EA8004FEA420043F001032CD2638000232380B1
:103EB8004880A368B3F5004F2CBF44F8366024F857
:103EC8003660A1686319B1F5004F4FF000012CBFAF
:103ED80059605980A368B3F5004F2CBF62516253F3
:103EE800A26804EBC703B2F5004F10D35A683146F5
:103EF80042F001025A602046BDE8F840FFF71EBDB7
:103F0800082398E76360002323604860D1E75A8854
:103F1800314642F001025A802046BDE8F840FFF7DA
:103F28000DBD16494FF40E73154A164800F094F863
:103F3800154800F091F84FF40E71114800F082F81E
:103F4800124940F223230E4A0E4800F085F80E4825
:103F580000F082F840F22321094800F073F80C4978
:103F680040F21A23064A074800F076F8064800F09F
:103F780073F840F21A21024800F064F80CEE0200CF
:103F880090EC02004C370200C4ED0200E0ED0200A4
:103F9800A0ED020000207047014B1B68184700BFC6
:103FA80064060020014B1860704700BF64060020BB
:103FB80000B5864600234FF0020C0A46074985B033
:103FC800019168467146009302938DF802C00393ED
:103FD8001CF016FB05B05DF804FB00BFA13F000014
:103FE8000FB44FF0020C002300B50A4987B008AAA5
:103FF800039152F8041B02A80293CDE904338DF80B
:104008000AC001921CF0FCFA07B05DF804EB04B09A
:10401800704700BFA13F000080B505460E46144614
:104028001F461BF0D3FB03461DF046FF21460446FE
:104038003A46034F30463B51A847E05901F0B8F8DB
:1040480008000000002383F31188BFF36F8F042357
:10405800184602DF704700BF0FB400B583B004A94B
:1040680051F8040B0191FFF7A3FF03B05DF804EBCF
:1040780004B070472DE9F04F1446828B834612F046
:10408800080C83B040F04E8102F007000229074671
:10409800CDF804C080B254D0DBF81860002EC0F20E
:1040A800E080411F012940F20581042840F08A81FF
:1040B80022F00702DBF8005092B2ABF81C20002D6A
:1040C80000F0388142F02002ABF81C205FB34FF0BB
:1040D8000008DBF808704546C246002F50D1002D75
:1040E8004FD1BAF1000F1ED02F464AE0BAF1000FA7
:1040F80002D05846BF49D047EFF31184202282F3FB
:104108001288BFF36F8F48461BF0BCFD002800F0F3
:10411800178148461BF0DCFDBBF81C2022F0080282
:1041280092B2ABF81C20D1064DD5012122F0100225
:1041380092B202F0070002290746ABF81C2080B2B1
:10414800AAD100285ED1DBF8001000297AD0002F10
:1041580040F01481DBF81010D1F800A0BAF1000F7C
:1041680000F024813D464FF006083E4622F0070243
:1041780042F00602ABF81C20DBF80870002FAED026
:10418800012742F008020BF114094846ABF81C203D
:104198001BF086FD002800F0E18084F31188BFF34E
:1041A8006F8FBFB9002DA1D02846314650F8047B47
:1041B80000F0EEFA044618B32946334642465846FC
:1041C800A0473D46EEE793063CD522F020020221A7
:1041D80092B2AEE7DBF808100029E3D00C6833464A
:1041E800424658464F68B847002CDBD02146246821
:1041F8003346424658464F68B847002CF6D1D1E7B7
:104208003D46CFE702281AD001281BD1DBF8001061
:10421800C1B1012F40F0BE80DBF81010D1F808A022
:10422800BAF1000F00F00981002522F0070242F0E0
:1042380005024FF005082E46ABF81C209CE7BBF89A
:104248001E5015B30BF1140528461BF029FD002854
:1042580000F0EA8084F31188BFF36F8F03B0BDE8E4
:10426800F08F4FF00108019B22F0070242F0010293
:10427800DBF80050CBF80430ABF81C20CBF800304A
:10428800474529D04FF0000A76E7022F40F0A68074
:10429800DBF81010D1F804A0BAF1000F00F0D980B3
:1042A80022F0070242F004024FF004082E46ABF851
:1042B8001C2061E7019B0628DBF80050CBF804308E
:1042C800CBF800300FD04FF0000822F0070292B26E
:1042D8004745ABF81C20D5D1002D3FF424AF4FF053
:1042E800000A57464DE74DB12846BBF81E1001316C
:1042F80089B2ABF81E1000680028F8D122F0070137
:10430800BBF81E0041F00202ABF81C2089B210B1C4
:104318004FF00208B4E741F022024FF00208ABF870
:104328001C20ADE701290CBF42F0100242F0200228
:10433800828387E7002F3FF4F6AEA846AA461BE71C
:1043480088232D4A2D482E49FFF786FE49462D48D9
:10435800FFF782FE88212848FFF774FE2A494FF4A8
:104368009A73254A2548FFF777FE49462748FFF7FD
:1043780073FE4FF49A712048FFF764FE24491F48E2
:104388004FF4AB73234AFFF767FE4FF4AB71214834
:10439800FFF758FE204919484FF4B2731D4AFFF73A
:1043A8005BFE4FF4B2711B48FFF74CFE1B491348E4
:1043B8004FF4AD73174AFFF74FFE4FF4AD71154830
:1043C800FFF740FE16490D4840F21B13114AFFF74C
:1043D80043FE40F21B110F48FFF734FE114907480E
:1043E80040F25D130B4AFFF737FE40F25D110948B2
:1043F800FFF728FE89440000B4EE02004C370200A3
:1044080014EF02002CEF0200E4EE0200FCEE0200C2
:1044180060EE020038EE02009CEE02006CEE020034
:104428004CF9020084EE020010494FF49A73104AC6
:104438001048FFF711FE294698E70F490D484FF439
:10444800B4730E4AFFF708FE4FF4B4710B48FFF738
:10445800F9FD0949074840F26113084AFFF7FCFDD6
:1044680040F261110548FFF7EDFD00BFE4EE0200E0
:10447800B4EE02004C3702006CEE020038EE020087
:10448800F8B504460D4600F11406EFF31187202312
:1044980083F31288BFF36F8F30461BF0F3FB50B1E4
:1044A80030461BF015FCA5613A462046BDE8F840A9
:1044B8000121FFF7DFBD8823064A07480749FFF7B0
:1044C800CBFD31460648FFF7C7FD88210148FFF7B5
:1044D800B9FD00BFB4EE02004C37020014EF020031
:1044E8002CEF020088B138B50C4659B10B684BB1B6
:1044F8004B683BB10546202200211DF0EFFA2C61E4
:10450800002038BD6FF0150038BD6FF015007047FA
:104518002DE9F84F002800F081800D4600297DD054
:1045280001F1040A0446504600F01EF9061E26D181
:10453800AB68032B72D804F11409EFF3118B202315
:1045480083F31288BFF36F8F48461BF09BFB8046AE
:1045580000286AD048461BF0BBFB4FF6FF72E38B7E
:10456800A78B934207F007073FD0022F39D0062FB9
:1045780048D8DFE807F00842474708190800DADAA0
:104588003046BDE8F88F00232B60636893B31D6045
:104598006560002F45D13E4620465A460221FFF766
:1045A80069FD3046BDE8F88F6FF085064FF00008CA
:1045B80048461BF075FB002845D08BF31188BFF3E4
:1045C8006F8FB8F1000FDBD05046002100F0E0F803
:1045D80080460028D4D03A46294620460023C047C2
:1045E800CEE701333E46E383E2E76FF00A064FF079
:1045F8000008DDE725606560CBE76FF004064FF043
:104608000008D5E7184919484FF4E473184AFFF72A
:1046180023FD4FF4E4711648FFF714FD6FF01506FB
:10462800AEE73E464FF00008C2E78823114A0F481C
:104638001149FFF711FD49461048FFF70DFD882184
:104648000C48FFF7FFFC4FF49A730A4A07480C49D5
:10465800FFF702FD49460B48FFF7FEFC4FF49A713D
:104668000448FFF7EFFC00BF9CEE02004C37020045
:1046780038EE0200B4EE020014EF02002CEF020044
:10468800E4EE0200FCEE0200F8B5054600F114065F
:10469800EFF31187202383F31288BFF36F8F30461F
:1046A8001BF0F0FA30B330461BF012FBAC8B04F071
:1046B8000704022C10D1EB8B002B39D0013B9BB2A5
:1046C800EB8383B130461BF0EBFA08B387F311880C
:1046D800BFF36F8F2046F8BD012C0CBF6FF00404A8
:1046E8006FF08504EEE728463A462146FFF7C2FCFC
:1046F8002046F8BD8823144A14481549FFF7ACFC36
:1047080031461448FFF7A8FC88210F48FFF79AFCA8
:104718004FF49A730C4A0D480F49FFF79DFC314638
:104728000E48FFF799FC4FF49A710748FFF78AFC87
:104738000B49064840F2EF130A4AFFF78DFC40F296
:10474800EF110848FFF77EFCB4EE02004C37020078
:1047580014EF02002CEF0200E4EE0200FCEE02006F
:1047680044EF020038EE0200034630B1426802F01E
:104778000302012A07D0032A02D06FF01500704700
:104788000268002AF9D0002210469A60704700BFDC
:1047980008B54268034602F00302032A816003D188
:1047A800006800225A6008BD4AB9074907484523EE
:1047B800074AFFF751FC45210548FFF743FC002055
:1047C80000225A6008BD00BF4CF902004C370200B5
:1047D80054EF0200704700BF0346024A00201A60E7
:1047E800704700BF7CEF020008B50448FFF7F8FBEC
:1047F800BDE808400248FFF7F3BB00BF7CEF0200AA
:10480800B4EF0200FEE700BF01481BF0FFBC00BF89
:10481800E4EF020030B308B54368B3F5683F14D03D
:10482800B3F5680F07D0124A93421ED00068FCF710
:104838005BFF002008BD002103680E4A1B7803F5C2
:10484800807342F82310002008BD00220368D3E8D3
:10485800EF1F012903D1C3E8E02F0028F7D1F2D0D8
:10486800054808BD6FF4E0407047044808BD00BF24
:104878002C5F5CA900000350E98FFFFFEA8FFFFF60
:1048880058B308B54368B3F5683F1AD0B3F5680F55
:104898000CD0144A934223D000684FF0FF324FF0F7
:1048A800FF3319F01BFE50B10F4808BD03680F4ACB
:1048B8001B7803F5807352F82330002BF4D10020C5
:1048C80008BD01220368D3E8EF1F002903D1C3E81C
:1048D800E02F0028F7D1F2D0E6E76FF4E040704708
:1048E800034808BD2C5F5CA9E98FFFFF0000035057
:1048F800EA8FFFFF10B50446A8B16368B3F5683FB7
:1049080010D0B3F5680F0DD00C4A93420AD013F4B7
:10491800686321680CD00A48FCF716FE0023236060
:10492800064B636010BD074B07485B689847E4E790
:104938000B604B608B60CB600B61F1E72C5F5CA96F
:1049480064DA032068080020ECEF020010B5044682
:1049580000283AD06368B3F5683F2CD0B3F5680FE8
:1049680029D01E4A934227D0B3F5683F28D83A2B5E
:1049780029D040F6BA62934225D04FF0FF324FF06B
:10498800FF332146164819F0AFFA18B3154B1648ED
:104998005B689847236800224FF468611A605A6080
:1049A8009A60DA601A612068616019F08FFD6368A7
:1049B80043F03A03636010BD20680028F5D1DCE7B6
:1049C8000A4A9342D9D12068EFE7064B08485B684A
:1049D8009847BFE72368002BDDD1D7E72C5F5CA998
:1049E80064DA03206808002014F002003A00003A54
:1049F800ECEF020008B5064940231422054819F0D7
:104A080047FABDE80840044904481BF071BC00BFE0
:104A180064D5032064DA032044F0020058F0020051
:104A28001DF05CB81DF04DB808B50348034A0021D5
:104A3800121AFFF7F5FF08BD800900206CDE03207D
:104A4800074808B5074A0849121AFFF7EBFFBDE8FF
:104A580008400648064A0749121AFFF7E3BF00BF95
:104A6800C00400207C090020B4630400B8040020BE
:104A7800C0040020AC6304002DE9F04381460E46D3
:104A880087B081B3D1E9012322480968FFF7A8FA62
:104A9800D6E90423F1682048FFF7A2FAF1691F4814
:104AA800FFF79EFA35460024DFF88080E96AE31CA8
:104AB8002A6ACDE90331A96AA31CCDE901316F6ADD
:104AC8002146631C404600970434FFF789FA102CEE
:104AD80005F11005EAD1316E1148FFF781FAB16985
:104AE8001048FFF77DFAB9F1010F06D03146484664
:104AF80007B0BDE8F04318F0C7BFEFF305810A48D7
:104B08001039FFF76DFA3146484607B0BDE8F04363
:104B180018F0BABF68F0020098F00200C8F002006E
:104B28001CF102002CF102005CF10200D8F0020036
:104B380001460068FFF7A0BF08B500F005F8BDE81A
:104B4800084000F02BB800BF30BFFFF7FDBF00BF23
:104B58000B4601461846FEF735BE00BF2DE9F04169
:104B68000C4605460A4EDFF83080324606EB080749
:104B7800E41B204607491CF0A4FFA0194246002167
:104B8800083C1CF0ABFF2C6707F10800BDE8F0817A
:104B9800000000004422020008000000054B9A694A
:104BA8009B689A4204D0044A536843F08053536088
:104BB80019F0F6BD2CDC032000ED00E008B52E4806
:104BC800FFF70EFA2D4B9B6A980120D42B4B1D2022
:104BD8009B6AD90123D4294B9B6ADA0227D4274B35
:104BE8009B6A1B032BD4254B9B6A59032FD4234B59
:104BF8009B6A9A0333D4214B9B6ADB0337D41F4A41
:104C0800936A6FEA03436FEA1343936208BD1C4833
:104C1800FFF7E6F9194B1E209B6AD901DBD5194825
:104C2800FFF7DEF9154B1F209B6ADA02D7D5164825
:104C3800FFF7D6F9114B02209B6A1B03D3D5134803
:104C4800FFF7CEF90D4B21209B6A5903CFD51048A9
:104C5800FFF7C6F9094B22209B6A9A03CBD50D486A
:104C6800FFF7BEF9054B23209B6ADB03C7D50A482B
:104C7800FFF7B6F92420C2E770F1020000ED00E06A
:104C88008CF10200A0F10200BCF10200E8F1020080
:104C980008F2020030F202004CF2020070B505463C
:104CA80028480C46FFF79CF9274B9B6AD80439D44F
:104CB8001623254A926A11052FD4234EB26A92050B
:104CC80022D4214A926A500519D41F4A916AC9050B
:104CD80010D4926A920408D4184600211A4A936A9A
:104CE80043F47F439362217070BD1848FFF778F949
:104CF8001C20F2E71648FFF773F91B20EDE715486B
:104D0800FFF76EF91A23E0E71348FFF769F9B16B6B
:104D1800B36A1B040BD41923D3E71048FFF760F9D3
:104D28001823CAE70E48FFF75BF91723C1E70D48B8
:104D3800FFF756F9002DEED0B36A23F40043B362AF
:104D4800E9E700BF78F2020000ED00E024F302007A
:104D580008F30200ECF20200B8F20200A4F202002A
:104D680090F20200D4F2020070B5054639480C46AC
:104D7800FFF736F9384B9B6AD9062BD4364B1020EF
:104D88009B6A1A072ED4344EB36A9B0732D4324B2F
:104D98009B6ADA0737D4304B9B6A9B063BD42E4B71
:104DA8009A6AD60602D49B6A9D0703D52A4B9B6A4A
:104DB800D9063FD4284B9A6A920603D55A6A22F438
:104DC80000525A620021244A936A43F0FF03936217
:104DD800217070BD2148FFF703F91F4B11209B6A12
:104DE8001A07D0D51C4E1E48FFF7FAF8B36A1220EE
:104DF8009B07CCD51B48FFF7F3F8716BB36A18060D
:104E08000ED41320C3E71848FFF7EAF8124B142012
:104E18009B6A9B06C3D51548FFF7E2F81520BEE745
:104E28001348FFF7DDF8002DEBD0B36A23F08003B9
:104E3800B362E6E70F4940F22D130F4A0F48FFF718
:104E48000BF90F48FFF708F940F22D110A48FFF750
:104E5800F9F800BF54F3020000ED00E06CF3020023
:104E6800A4F20200A0F30200D4F3020024F302002B
:104E7800BCF3020028F40200F4F302004C370200ED
:104E880074F4020070B5794B9CB05E680023C6F3D9
:104E9800080C83F31188BFF36F8F02F07F44B4F1DD
:104EA8007F4F40F0A58002F00C04082C00F09D8094
:104EB80014074BBF0C4604461D460125002C00F084
:104EC80097800022ACF103038DF80720092B06D840
:104ED800DFE803F0265F736B05050505056F644B76
:104EE80016F4F87F6349644818BF1946ACF11002FC
:104EF800FFF776F800266822214602A81CF0E1FD9B
:104F0800099B002D60D0C3F3080240F2FF110AB9D3
:104F18000B430993304602A9FFF7AEFD1CB070BDE4
:104F28005648FFF75DF80023504E8DF80730F36AB6
:104F38009A074FD4F36A002B69DBF36A5B0077D5D5
:104F48004F48FFF74DF87369A26943F480737361A2
:104F5800BFF34F8FBFF36F8F736932F8022C23F4BE
:104F680080737361BFF34F8FBFF36F8F4DF602737A
:104F78009A4250D0B36ADBB283BBB36A13F47F4F53
:104F88004FD1B36AB3F5803F61D3FFF717FE0646EA
:104F980005E000200DF10701FFF7E6FE06469DF843
:104FA8000730002BA7D01CB070BDFFF707FE0646E0
:104FB800A1E73448FFF714F89CE700200DF107013A
:104FC800FFF76CFE0646EAE723F4FF7323F00103BC
:104FD80009939FE72C48FFF703F88BE701200DF1B1
:104FE8000701FFF7C1FE0646D9E72848FEF7F8FF94
:104FF800274940F21443274A2748FFF72DF8274846
:10500800FFF72AF840F214412248FFF71BF824481A
:10501800FEF7E6FF6EE721682248FEF7E1FF266803
:10502800BDE701200DF10701FFF738FE0646B6E798
:105038001D494FF43C73174A1748FFF70DF81B48F2
:10504800FFF70AF84FF43C711248FEF7FBFF1649C8
:1050580040F2ED230F4A1048FEF7FEFF1448FEF712
:10506800FBFF40F2ED210B48FEF7ECFF00ED00E0FE
:10507800F0F40200D8F4020094F602008CF5020065
:10508800D8F502006CF60200A4F502000CF5020047
:1050980038F50200F4F302004C3702004CF5020028
:1050A800C8F50200F8F502004CF902003CF60200CF
:1050B80018F60200064B5A6942F010025A615A6902
:1050C80042F480625A615A6922F008025A617047B4
:1050D80000ED00E0EFF30880EFF3098101B57246B7
:1050E800FFF7D0FE01BD00BF002080F31488BFF396
:1050F8006F8F002080F30A8880F30B880F4880F3B5
:10510800088816F04DF900200D490860BFF34F8F4D
:1051180000F01AF8202080F311880A484FF4006143
:10512800401880F30988EFF314800221084380F3C4
:105138001488BFF36F8F00F029F90000B0370420FE
:1051480094ED00E070EE032072B6002383F3138819
:10515800154AD2F8900010F47F4FC0F3072107D00A
:105168001846C2F8983001339942C2F8A000F8D125
:1051780000234FF0FF300D4903F120020133102BBB
:1051880041F82200F8D100234FF0FF30074903F11E
:1051980060020133102B41F82200F8D162B6BFF348
:1051A8004F8FBFF36F8F704700ED00E000E100E024
:1051B8000A4B9B68834201D01AF00EBBEFF30583BC
:1051C800002BF9D0064B5A6842F080525A605A6A4E
:1051D80022F400425A621AF0FFBA00BF2CDC032006
:1051E80000ED00E023498A6882F8BDE04FF0300006
:1051F8001044EFF3098C80E8F01F1EF0100F03D164
:1052080002F17C0080EC108A202080F31288BFF322
:105218006F8F194F4FF000668A698A603E60106F81
:10522800164C206092F9BDE0506F0023536780F35D
:1052380011881EF0100F03D00023E1EE103A03E0AE
:1052480002F17C0090EC108AEFF3148323F004033E
:1052580083F31488BFF36F8F02F1300090E8F01FDA
:105268008CF3098802F1000004B500F0D9F8BDE814
:10527800044070472CDC032004ED00E084DA0320AE
:105288001EF0040F0CBFEFF30880EFF3098081696B
:1052980011F8021C0229FFD001B57246FFF748FC3D
:1052A80001BD00BF40B2002807DB012300F01F0149
:1052B800024A40098B4042F82030704700E100E084
:1052C80040B200280CDB01220649430900F01F0008
:1052D8002033824041F82320BFF34F8FBFF36F8FF5
:1052E800704700BF00E100E00123054A410952F878
:1052F800212000F01F0003FA00F01040704700BFA3
:1053080000E100E038B54B1C072B044611D840B229
:105318005B010028DBB206DB00F1604000F561406C
:1053280080F8003338BD0B4A00F00F0002441376B2
:1053380038BD0D466B23084A08490948FEF78CFE1C
:105348002946084807232246FEF786FE6B210248B5
:10535800FEF778FEFCEC00E0A8F60200E0F602009A
:105368004C370200FCF6020000210120FFF784BB45
:10537800044B054A23F07F039360BFF34F8FBFF3BD
:105388006F8F70470000000000ED00E008B5FFF7E0
:10539800EFFF4FF040400F4B0F49D3F8882022F41D
:1053A8007002C3F88820D3F8882042F4A002C3F81A
:1053B80088204863BFF34F8FBFF36F8F0023E1EE60
:1053C800103AFFF731FBFFF73BFB00F0BBF818F092
:1053D80055FC00BF00ED00E000EF00E070B44FF0B6
:1053E800807600254FF47D4442F8203C039B0B490E
:1053F80042F81C3C049B21F0010142F8183C059B33
:1054080042F8081C42F8143C42F8046C203A4567FC
:10541800C0F8BC40026570BC704700BF2140000066
:10542800036E83F30B887047114B9B6898421BD11E
:10543800EFF30583C3B9EFF31181202282F31288B9
:10544800BFF36F8F027B22F002020273EFF3148224
:1054580022F0040282F31488BFF36F8F81F311885E
:10546800BFF36F8F184670476FF01500704700BF85
:105478002CDC032000230E46154600B5E1EE103A59
:10548800EFF3148323F0040383F31488BFF36F8FBF
:10549800BFF36F8F0B4B0C4A016F98601160036E5E
:1054A80083F30B882C4686F309880020034B984722
:1054B8002046002100220023014C2047D55400003B
:1054C800214000002CDC032084DA032061B662B698
:1054D80080F31188BFF36F8F704700BF1022014B14
:1054E8001A61704700ED00E072B6002383F311885B
:1054F800BFF36F8FBFF34F8F30BF00BF00BF00BF38
:1055080000BF00BF00BF00BF00BF62B6BFF36F8F10
:10551800704700BF72B6002383F31188BFF36F8F03
:10552800BFF34F8F20BF00BF00BF00BF00BF00BF49
:1055380000BF00BF00BF80F31188BFF36F8F62B652
:10554800704700BF002320200349CA180133452BA8
:1055580082F80003F9D1704700E100E008B5EFF3E5
:105568000583064A103B02EBC30152F83300496831
:105578008847BDE80840FFF711BB00BFBC1F020009
:1055880040E800F313F4803FD8B208BF6FF015006D
:10559800704700BF10B50A4C84B023460121094862
:1055A800094A00F0EFF80022084B0121E41A01A88B
:1055B800CDE90134039200F009F904B010BD00BF31
:1055C800000008203CF702000000002080090020AD
:1055D80030B5134C0B89D4F890200D68C2F307221C
:1055E80003F01F0C4B68013A25F01F0E013B904257
:1055F8004989734410D801F0070123F01F0343EAD7
:1056080041034CEA0E0243F00103C4F89800C4F8C1
:105618009C20C4F8A03030BD6FF0150030BD00BF2D
:1056280000ED00E02DE9F84F154671B180460746B8
:105638004FF0000901EB41047E68002E76D01F2E42
:1056480001D9F30604D06FF015052846BDE8F88F98
:1056580058F829A01AF01F0FF5D15046FFF790FF10
:1056680003460AF1FF3030441E46FFF789FF8642A1
:10567800E9D116F1160FE6D0B542E4DD404BC3F888
:105688009860D3F89C00C3F8986058F829107A6895
:10569800D3F8A0A020F01F000A4488424AF01F0A4D
:1056A80002F1FF3B52D0C3F89860D3F8A02001392B
:1056B80021F01F0102F01F020A43DA453946E8B219
:1056C800C3F8A0203AD0FFF783FF10F1160FBAD025
:1056D8002B49451CC1F898607A6858F82930D1F8E8
:1056E8009C60134423F01F00D1F8A030D1F890C07B
:1056F8000AF1FF3ACCF3072CEDB20AEB00020CF1E9
:10570800FF3CA2EB0B02654522F01F029BD803F079
:105718000E03134306F01F02024343F00103C1F8CE
:105728009850C1F89C200135C1F8A03009F103094F
:10573800A14507F10C077FF47FAF86E7FFF748FF25
:1057480010F1160F3FF47FAF451CEFE7DA4512D092
:10575800C3F89860D3F89C1022F01F0201F01F01D3
:105768000A43E8B23946C3F89C20FFF731FF10F12D
:10577800160FE9D167E73946F0B2FFF729FFD5E7F9
:1057880000ED00E038B50C4D0C462A78FFF74AFFCB
:105798002870163000D038BD4FF4BF73074A084848
:1057A8000849FEF759FC21460748FEF755FC4FF417
:1057B800BF710248FEF746FC69DE032048F7020085
:1057C8004C3702004CF9020078F7020000295ED03D
:1057D8002DE9F84F884606464FF0000A2C4CDFF8B2
:1057E800CCB02BE015F1160F44F8045C3DD0294BE2
:1057F8001B78AB4239DDCBF89850CBF89850DBF8E2
:105808009C20237A62F304032372DBF8A030227A07
:105818005B0863F347122272DBF89C3023F01F0306
:105828002360DBF8A03023F01F03E3600AF1010ACC
:10583800C24506F10C0604F1140426DA7768002F35
:10584800F4D0D6F800904846FFF79AFE054607EBD5
:1058580009000138FFF794FE8542C3D06FF01502A6
:105868000D4B0AEB8A0A43F82A204FF4C7730B4AF8
:105878000B480C49FEF7F0FB41460B48FEF7ECFBE2
:105888004FF4C7710548FEF7DDFBBDE8F88F704798
:105898008CDA032069DE032088DA032048F7020047
:1058A8004C3702004CF90200A4F7020000ED00E0BA
:1058B8002DE9F04F814C824AD4F890301568C3F333
:1058C80007239D4283B000F2E580BFF35F8F002677
:1058D8007C4BC4F89460C4F8C030DDB15168087AD4
:1058E800CB680A68470923F01F03C4F8986022F0C0
:1058F8001F0200F01F0043EA47030136024343F04A
:105908000103B542C4F89C2001F11001C4F8A0308D
:10591800E5D1EDB26C4E01A83570FEF75DFF0028A9
:1059280000F0A5804FF0000E96F80080F44642463D
:10593800019C664F614D09E0B3F5801F00F0898036
:105948000CF1010C604504F1100435D0D4F80C902A
:1059580009EA0703B3F5001F51D0B3F5800FEBD167
:10596800D4E901134FF0000A4FF0060B21F01F0194
:10597800013B0B4423F01F03D5F89090C9F3072986
:1059880009F1FF394A4551D84FF0010E43EA4A035D
:105998000CF1010C41EA0B0143EA0E0302EB0E097C
:1059A8006045C5F8982004F11004C5F89C105FFA0A
:1059B80089F2C5F8A030C9D1BEF1000F55D03270B8
:1059C8003E49D1F89030C3F307239A420BDA0020FE
:1059D800C1F89820C1F8A000D1F890300132C3F383
:1059E80007239342F4DC0522344BC3F89420BFF319
:1059F8004F8FBFF36F8F002003B0BDE8F08F616851
:105A0800A36821F01F01013B0B4419F0010F23F09B
:105A18001F032ED1D5F890904FF0020AC9F3072939
:105A280009F1FF394A454FF0010BADD9BEF1000F1E
:105A380000D03270264940F22123264A2648FEF734
:105A48000BFB2648FEF708FB40F221212148FEF710
:105A5800F9FA4FF0010AD4E9011321F01F01013BC3
:105A68000B44D34623F01F0386E74246A8E7327863
:105A7800A6E7BEF1000F00D0327019498323154AFA
:105A88001548FEF7E9FA1748FEF7E6FA83211148A8
:105A9800FEF7D8FA40F2F7130E4A0D490E48FEF702
:105AA800DBFAD4F8902029460F48C2F30722FEF704
:105AB800D3FA40F2F7110748FEF7C4FA00ED00E008
:105AC8008CF80200AAFF440069DE03200000F0FF02
:105AD8004CF9020048F702004C37020060F8020057
